:020000040800F2
:10000000900A0020AD010008493800086126000868
:10001000ED370008E51C0008D15900080000000079
:10002000000000000000000000000000914A0008ED
:10003000E920000800000000E94000084D4E0008DB
:10004000C7010008C7010008C7010008C701000870
:10005000C7010008C7010008C7010008C701000860
:1000600099210008C7010008C7010008C70100085E
:10007000C7010008C7010008C7010008C701000840
:10008000C7010008C7010008C70100080000000000
:10009000000000000000000000000000C701000890
:1000A000C7010008C7010008C7010008C701000810
:1000B000C7010008C70100082D4F0008C70100084C
:1000C000C7010008C7010008C7010008C7010008F0
:1000D000C70100089D5600083D57000800000000B9
:1000E000C7010008C7010008C701000800000000A0
:1000F000000000000000000000000000C701000830
:1001000000000000C7010008C7010008C70100087F
:1001100000000000000000000000000000000000DF
:10012000C7010008C7010008C7010008C70100088F
:10013000C7010008000000000000000000000000EF
:10014000000000000000000000000000C7010008DF
:10015000C7010008C7010008C7010008C70100085F
:10016000C7010008C70100080000000000000000EF
:10017000000000000000000000000000000000007F
:1001800000000000C701000800000000000000009F
:10019000C7010008C7010008DFF80CD000F050FBD1
:1001A000004800471D780008900A00200648804754
:1001B00006480047FEE7FEE7FEE7FEE7FEE7FEE74C
:1001C000FEE7FEE7FEE7FEE7514E00089901000852
:1001D0000649074A0868504343F239021044086050
:1001E000400870470149086070470000F80000208F
:1001F0006D4EC64140EA01039B0703D009E008C9E0
:10020000121F08C0042AFAD203E011F8013B00F8DB
:10021000013B521EF9D270472DE9FE4F81EA0304DB
:1002200004F0004421F0004100944FF0000B23F053
:10023000004350EA01045ED052EA03045BD0C3F3EA
:100240000A54C1F30A552C44A4F2F3340194A0FBE0
:100250000254C1F3130141F48011C3F3130343F4B7
:10026000801301FB024400FB034E840A970A44EA10
:10027000815447EA8357A4FB076802958D0A05FB62
:1002800007854FEA932C04FB0C542705029D4FEA87
:10029000065847EA1637B5EB08056EEB070C870ED4
:1002A000920E47EA811742EA8312A7FB0201B6EBDE
:1002B0000B0164EB00042B0D43EA0C335E1844EB96
:1002C0001C50DA465146E7FB0201C5F313044FEA1E
:1002D0000B3343EA14534FEA0432019C43EA06030A
:1002E000A4F10C040294009CCDE900B400F09BF949
:1002F00003B0BDE8F08F00200146F9E72DE9F04D8D
:1003000081EA030404F0004B21F0004514464FF04D
:10031000000A23F0004150EA050220D054EA01020D
:100320001DD0C5F30A570246C5F31303C1F31300EA
:10033000C1F30A5640F4801543F48013A7EB060876
:10034000101BD64608F2FD3873EB050002D308F106
:10035000010801E092185B41B8F1000F03DA0020B8
:100360000146BDE8F08D00204FF48011064684461A
:100370000EE0171B73EB050705D3121B63EB050398
:1003800006434CEA010C49084FEA300092185B41E1
:1003900050EA0107EDD152EA030012D082EA0400CC
:1003A00083EA0501084305D0101BAB4106D20122A8
:1003B000002306E000224FF0004302E06FF001024C
:1003C00053101AEB06004CEB085110EB0A0041EBFE
:1003D0000B01BDE8F04D00F017B90EB5C10F80EA72
:1003E000E0700844CA07002140F233438DE80E0054
:1003F0000A460B4600F017F903B000BDC1F30A52DC
:1004000010B5C1F3130140F2FF3341F480119A4259
:1004100001DA002010BD40F233439A42A2F2334287
:1004200003DC524200F0A9F810BD904010BD00F06E
:10043000004230F000400AD0C10D01F56071C0F3F8
:10044000160042EA0151C2084007114370470020DC
:100450000146704730B5041E71F1000404DB4FF013
:100460000044404264EB0101141E73F1000405DBFB
:100470001C464FF00043524263EB04038B4208BF1B
:10048000824230BD30B5041E71F1000404DB4FF030
:100490000044404264EB0101141E73F1000405DBCB
:1004A0001C464FF00043524263EB0403994208BFDD
:1004B000904230BD01F0004330B421F0004150EAD9
:1004C000010206D00A0DA2F56072C1F31301002AE1
:1004D00002DC30BC00207047440F44EAC104C10074
:1004E000E01830BC00EBC25000F057B830B50B46F6
:1004F000014600202022012409E021FA02F59D4254
:1005000005D303FA02F5491B04FA02F52844151E27
:10051000A2F10102F1DC30BD2DE9F05F05460020BB
:1005200092469B4688460646814640241BE0284664
:1005300041464746224600F020F853465A46C01A24
:10054000914110D311461846224600F08BF92D1A1E
:1005500067EB01084F4622460120002100F082F996
:1005600017EB00094E41201EA4F10104DFDC4846D0
:1005700031462A464346BDE8F09F202A04DB203A54
:1005800021FA02F00021704721FA02F3D040C2F1B3
:10059000200291400843194670470029A8BF7047C0
:1005A000401C490008BF20F00100704710B4B0FAA9
:1005B00080FC00FA0CF050EA010404BF10BC704744
:1005C00049B1CCF1200421FA04F411FA0CF118BF5E
:1005D000012121430843A3EB0C01CB1D4FEA00612D
:1005E0004FEA102042BF002010BC704700EBC35000
:1005F00010440029A4BF10BC7047401C490008BF2C
:1006000020F0010010BC704710B5141E73F10004F7
:1006100008DA401C41F1000192185B411A4301D1F4
:1006200020F0010010BD2DE9F04D92469B4611B11E
:10063000B1FA81F202E0B0FA80F22032904600F086
:1006400011F904460F4640EA0A0041EA0B015346FD
:100650005A46084313D0114653EA010019D0C8F195
:1006600040025046FFF789FF05460E465046594660
:10067000424600F0F7F8084305D0012004E0204688
:100680003946BDE8F08D0020054346EAE0762C436C
:1006900037430A986305E40AA0EB08000022FD0A2C
:1006A00044EA47540A3002D500200146E9E7010533
:1006B00010196941DDE9084500196941BDE8F04DAF
:1006C000A2E72DE9FE4F804681EA0300C00F0C46E9
:1006D000009021F0004123F00045B8EB0200A94151
:1006E00005D24046214690461C460B46024623F062
:1006F0000040104347D0270DC7F30A00C3F30A5147
:100700000290401A019040286BDAC3F3130040F4C2
:10071000801B0098924620B10023D2EB030A63EBC2
:100720000B0B01985946C0F14002504600F09AF870
:1007300006460D4650465946019A00F0A2F810EBC5
:1007400008006141002487EA115284EAE7731A43E2
:1007500040D0009A62B3019A012A4FEA075215DC91
:10076000001B61EB02014FF0004202EA0752CDE9A3
:100770000042001C41F5801132462B46FFF753FF23
:1007800003B0BDE8F08F40462146F9E7001B61EB5E
:100790000201001C41F5801300185B412018A2F5EE
:1007A000001747EB030140EAD570B6196D4111E01F
:1007B0006D084FEA360645EAC0754FEA0752001B3E
:1007C00061EB0201001C41F5801149084FEA30003D
:1007D0000019514132462B4603B0BDE8F04FFFF7F8
:1007E00013BF0098012240000023D0EB020263EB0C
:1007F000E073009821464FEAE074B8EB000061EB2B
:100800000401E9E783F000435BE781F0004158E72A
:10081000C1F30A52C1F3130140F2FF3341F48011D6
:100820009A4202DA00200146704740F233439A426E
:10083000A2F2334202DC5242FFF79FBE00F012B830
:10084000064C074D06E0E06840F0010394E807001D
:1008500098471034AC42F6D3FFF7A2FC007B0008A7
:10086000207B0008202A04DB203A00FA02F1002055
:1008700070479140C2F1200320FA03F319439040DE
:100880007047202A06DBCB17203A41FA02F043EAF0
:10089000E07306E041FA02F3D040C2F12002914039
:1008A0000843194670472DE9F04D00231A461B1ADC
:1008B0008A4103DB00200146BDE8F08DC1F30A52F6
:1008C000C1F3130141F480154FF0000BD10702D1A1
:1008D00000186D41521E0027044640F2FF113846B1
:1008E00001EB620A3E468046024600204FF480112A
:1008F000FFF743FEC2197141BB1846EB0100B4EB90
:10090000030C75EB000C04D3E41A65EB00051746E5
:100910000E46241908F101006D4180463428E3DDBC
:10092000F91946EB0600091BA84103D24FF0FF322C
:10093000134601E0002213461BEB070046EB0A5169
:10094000BDE8F04DFFF760BE21B1826842F00102C0
:10095000826003E0826822F001028260704700003A
:100960000021084A1168084A1140D0E900231A43BF
:1009700083681A43C3681A431143044AC2F8041334
:100980007047000004230140E030FCFF00200140DC
:100990000146C86C80B270470246002013680B40C5
:1009A0000BB1012000E000207047000030B5024686
:1009B000002000235068104C20400D790C6844EA58
:1009C00005242043506090680C4C2040D1E903542A
:1009D0002C438D682C434D7944EA450420439060B4
:1009E000D06A20F470000C7D641EE4B2234340EA18
:1009F0000350D06230BD0000FFFEFFFCFDF7FFC0DA
:100A0000F0B504460D4600200021092D11DDE068F7
:100A1000A5F10A0606EB4607072606FA07F1884302
:100A2000A5F10A0606EB460603FA06F10843E06064
:100A30000CE0206905EB4507072606FA07F1884315
:100A400005EB450603FA06F108432061072A0FDA91
:100A5000606B561E06EB86071F2606FA07F18843D1
:100A6000561E06EB860605FA06F10843606322E08F
:100A70000D2A0FDA206BD61F06EB86071F2606FA13
:100A800007F18843D61F06EB860605FA06F10843F0
:100A9000206310E0E06AA2F10D0606EB86071F2630
:100AA00006FA07F18843A2F10D0606EB860605FA61
:100AB00006F10843E062F0BD816841F08041816049
:100AC0007047000010B52DED028B86B0CF4800783E
:100AD000401CCE490870CE480078401CCC490870B4
:100AE000CC480078401CCB490870CB480078401CAB
:100AF000C9490870C9480078401CC8490870C348F3
:100B00000078372805DB0020C04908700120C4495F
:100B10004870BF480078052805DB0020BC490870F4
:100B20000120BF498870BB480078142805DB0020ED
:100B3000B84908700120BA49C870B748007823281E
:100B400005DB0020B44908700120B5490871B3489D
:100B500000783C2805DB0020B04908700120B0492E
:100B60004871AF484078E8B10020AD4948709FED2A
:100B7000AD0AB0EE408AAC48D0ED021AB0EE611A70
:100B8000D0ED011AF0EE610AD0ED001AB0EE610A64
:100B9000A64802780021FDEEC81A11EE900A00F076
:100BA00085FE00BF9E488078002861D000209C49C7
:100BB000887002900390049005909D4890ED020A81
:100BC000BDEEC00A10EE100A00B200EE100AB8EE38
:100BD000C00ADFED980A20EE200ABDEEC00A10EE32
:100BE000100A00B2924991ED010ABDEEC00A10EE62
:100BF000101A09B200EE101AB8EEC00ADFED8D0A25
:100C000020EE200ABDEEC00A10EE101A09B2884C80
:100C1000CDE9001094ED000ABDEEC00A10EE104AB6
:100C200024B200EE104AB8EEC00ADFED820A20EED0
:100C3000200ABDEEC00A10EE104A23B27E4C94ED9D
:100C4000020ABDEEC00A10EE104A22B27A4C94EDB0
:100C5000010ABDEEC00A10EE104A21B2764C94EDA6
:100C6000000ABDEEC00A10EE104A20B200F060FD8E
:100C70006B48C07810B100206949C8706848007995
:100C800010B10020664908716548407990B1002094
:100C900063494871694991ED020ADFED690A20EE66
:100CA000200ABCEEC00A10EE101A88B24FF4E471AC
:100CB00000F0F4FC5A48807960B3002058498871EC
:100CC0006048D0ED024AB0EE644AD0ED014AF0EE41
:100CD000643AD0ED004AB0EE643A5B48D0ED024A87
:100CE000F0EE642AD0ED014AB0EE642AD0ED004A5D
:100CF000F0EE641A5548D0ED024AB0EE641AD0ED19
:100D0000014AF0EE640AD0ED004AB0EE640A012018
:100D100000F0A6FB4248C07960B300204049C8718A
:100D20004B48D0ED024AB0EE644AD0ED014AF0EEF5
:100D3000643AD0ED004AB0EE643A4648D0ED024A3B
:100D4000F0EE642AD0ED014AB0EE642AD0ED004AFC
:100D5000F0EE641A4048D0ED024AB0EE641AD0EDCD
:100D6000014AF0EE640AD0ED004AB0EE640A0220B7
:100D700000F076FB2A48007AD8B300202849087290
:100D8000B7EE004ADFED353AB0EE003ADFED342A37
:100D90009FED342ADFED341A9FED311ADFED310A71
:100DA0009FED310A012000F05BFBB7EE004ADFED5A
:100DB0001D3AB0EE0C3ADFED292A9FED2C2ADFED2B
:100DC0002C1A9FED261ADFED290A9FED290A022031
:100DD00000F046FB9FED134ADFED123A9FED113A0A
:100DE000DFED102A9FED0F2ADFED0E1A9FED0D1A91
:100DF00000E006E0DFED0B0A9FED0A0A032000F099
:100E00002FFB06B0BDEC028B10BD0000EE000020F1
:100E1000EF000020F0000020F1000020F200002090
:100E20001C0600200000000070010020DD000020F2
:100E30007C010020A34C654294010020800000202A
:100E40000000C842C80500208C0500205005002085
:100E500014050020D80400209C040020CDCC4C3D7B
:100E6000F6285C3F0AD7A33B7B146E3F6F12033C0E
:100E70006666E63F2DE9F0412DED048B04460D46F4
:100E80000026002704E0E05D3044C6B2781CC7B2FB
:100E9000681EB842F7DC601910F8010CB04203D0AC
:100EA000BDEC048BBDE8F0812078AA2802D16078DF
:100EB000AF2800D0F4E7A07801283ED1207901289E
:100EC0000AD1FE48007840F00200FC49087000207A
:100ED000FB49088048808880207902280AD1F74899
:100EE000007840F00100F54908700020F5490880BD
:100EF00048808880207903280AD1F048007840F0A3
:100F00000200EE4908700846007840F001000870C1
:100F1000207904280FD1EC48007880F00100EA49DC
:100F200008700846007818B10120E849087002E00E
:100F30000020E649087002F0B3FFA078022811D122
:100F40002079012802D1E2498871C8712079A0284E
:100F500002D10120DE4908702079A12802D10120A8
:100F6000DB490872A07810287ED12179090209B2E4
:100F7000627941EA0200FFF730FA41EC190B9FED6C
:100F8000D50B53EC102BFFF747F941EC180BFFF78B
:100F900091FAD2490860A179090209B2E27941EADD
:100FA0000200FFF71AFA41EC190B9FEDCA0B53EC44
:100FB000102BFFF731F941EC180BFFF77BFAC7490B
:100FC0004860217A090209B2627A41EA0200FFF719
:100FD00004FA41EC190B9FEDBF0B53EC102BFFF7FC
:100FE0001BF941EC180BFFF765FABC498860A17A40
:100FF000090209B2E27A41EA0200FFF7EEF941EC98
:10100000190B9FEDB40B53EC102BFFF705F941ECD6
:10101000180BFFF74FFAB2490860217B090209B2A9
:10102000627B41EA0200FFF7D8F941EC190B9FED12
:10103000A90B53EC102BFFF7EFF841EC180BFFF75F
:1010400039FAA7494860A17B090209B2E27B41EA6B
:101050000200FFF7C2F941EC190B9FED9E0B53EC18
:10106000102BFFF7D9F800E04DE041EC180BFFF72B
:1010700021FA9B498860217C090209B2627C41EA1D
:101080000200FFF7AAF941EC190B9FED920B53EC0C
:10109000102BFFF7C1F841EC180BFFF70BFA914941
:1010A0000860A17C090209B2E27C41EA0200FFF774
:1010B00094F941EC190B9FED870B53EC102BFFF7C4
:1010C000ABF841EC180BFFF7F5F986494860217D34
:1010D000090209B2627D41EA0200FFF77EF941ECA4
:1010E000190B9FED7C0B53EC102BFFF795F841EC9F
:1010F000180BFFF7DFF97B498860A078314600F0D4
:1011000083F902F0CDFEA07811287CD12179090263
:1011100009B2627941EA0200FFF75FF941EC190B6D
:101120009FED6C0B53EC102BFFF776F841EC180B8E
:10113000FFF7C0F96C490860A179090209B2E279A8
:1011400041EA0200FFF749F941EC190B9FED610BF1
:1011500053EC102BFFF760F841EC180BFFF7AAF9DE
:1011600061494860217A090209B2627A41EA0200C3
:10117000FFF733F941EC190B9FED560B53EC102B95
:10118000FFF74AF841EC180BFFF794F956498860CD
:10119000A17A090209B2E27A41EA0200FFF71DF9D9
:1011A00041EC190B9FED4B0B53EC102BFFF734F870
:1011B00041EC180BFFF77EF94C490860217B0902CE
:1011C00009B2627B41EA0200FFF707F941EC190B13
:1011D0009FED400B53EC102BFFF71EF841EC180B62
:1011E000FFF768F941494860A17B090209B2E27B37
:1011F00041EA0200FFF7F1F841EC190B9FED350BC6
:1012000053EC102B00E04FE0FFF706F841EC180B11
:10121000FFF750F935498860217C090209B2627CE8
:1012200041EA0200FFF7D9F841EC190B9FED290BB9
:1012300053EC102BFEF7F0FF41EC180BFFF73AF9D7
:101240002B490860A17C090209B2E27C41EA020054
:10125000FFF7C3F841EC190B9FED1E0B53EC102B5D
:10126000FEF7DAFF41EC180BFFF724F9204948603C
:10127000217D090209B2627D41EA0200FFF7ADF863
:1012800041EC190B9FED130B53EC102BFEF7C4FF31
:1012900041EC180BFFF70EF915498860A07831462C
:1012A00000F0B2F802F0FCFDA078122803D1A0787B
:1012B000314600F0A9F8A07813281BE06000002058
:1012C0004E00002048000020ED000020DD0000203E
:1012D0001C060020FCA9F1D24D62503F50050020B1
:1012E0008C050020C80500209C040020D8040020A4
:1012F0001405002003D1A078314600F085F8A078CD
:10130000142803D1A078314600F07EF8A078152883
:1013100003D1A078314600F077F800BFC0E50000A7
:1013200010B504463448007838B9AA2C05D10120FC
:1013300031490870314804705DE02F480078012879
:1013400007D1AF2C05D102202B4908702B484470DF
:1013500051E029480078022807D1F12C05DA032052
:10136000254908702548847045E023480078032803
:101370000CD1322C0ADA04201F4908701F48C470AF
:101380001F48047000201F49087034E01A48007894
:10139000042819D11A480078002815DD184800786B
:1013A000401E174908701748007816490978491CEB
:1013B000144A1170001D11490C5411480078D0B91D
:1013C00005200D49087016E00B48007805280FD15C
:1013D0000020094908700B480078001D07490C548B
:1013E00008480078401DC1B20448FFF743FD02E001
:1013F00000200149087010BDF500002057060020AC
:10140000F3000020F40000202DE9F04105460E46CF
:101410000027AA200D4908704870EF20887002202C
:10142000C870084605714671002405E00748005D54
:101430003844C7B2601CC4B2062CF7DB034887717E
:10144000072100F005F8BDE8F08100002506002026
:1014500070B504460D462946204604F08DFA70BD4D
:10146000F0B52DED0A8B81B00646B0EE408AF0EE65
:10147000608AB0EE419AF0EE619AB0EE42AAF0EEC8
:1014800062AAB0EE43BAF0EE63BAB0EE44CA0024EA
:101490000027AA222146641C7E4842542146641C2F
:1014A000425406F10F00C2B22146641C79484254EE
:1014B00000222146641C42549FED770A28EE000A60
:1014C000BDEEC00A10EE100A00B200909DF8012097
:1014D0002146641C6F4842549DF800202146641C3C
:1014E00042549FED6D0A28EE800ABDEEC00A10EE50
:1014F000100A00B200909DF801202146641C654846
:1015000042549DF800202046611CCCB261490A5427
:101510009FED610A29EE000ABDEEC00A10EE100A26
:1015200000B200909DF801202046611CCCB25949C0
:101530000A549DF800202046611CCCB255490A543B
:101540009FED550A29EE800ABDEEC00A10EE100A82
:1015500000B200909DF801202046611CCCB24D499C
:101560000A549DF800202046611CCCB249490A5417
:101570009FED490A2AEE000ABDEEC00A10EE100ADD
:1015800000B200909DF801202046611CCCB2414978
:101590000A549DF800202046611CCCB23D490A54F3
:1015A0009FED3D0A2AEE800ABDEEC00A10EE100A39
:1015B00000B200909DF801202046611CCCB2354954
:1015C0000A549DF800202046611CCCB231490A54CF
:1015D0009FED310A2BEE000ABDEEC00A10EE100A94
:1015E00000B200909DF801202046611CCCB2294930
:1015F0000A549DF800202046611CCCB225490A54AB
:101600009FED250A2BEE800ABDEEC00A10EE100AEF
:1016100000B200909DF801202046611CCCB21D490B
:101620000A549DF800202046611CCCB219490A5486
:101630009FED190A2CEE000ABDEEC00A10EE100A4A
:1016400000B200909DF801202046611CCCB21149E7
:101650000A549DF800202046611CCCB20D490A5462
:10166000201FC870002505E00A48405D3844C7B215
:10167000681CC5B2A542F7DB2046611CCCB2054907
:101680000F5421460348FFF7E3FE01B0BDEC0A8B7F
:10169000F0BD00002506002000007A442DE9F84343
:1016A00006460F460024A046AA222146641C1F4875
:1016B00042542146641C425405222146641C425473
:1016C00000222146641C425400969DF801202146C8
:1016D000641C42549DF800202146641C425400972B
:1016E0009DF801202146641C42549DF800202046AC
:1016F000611CCCB20D490A54201FC870002506E0B9
:101700000A48405D404400F0FF08681CC5B2A5428D
:10171000F6DB2046611CCCB2044901F8008021466A
:101720000248FFF795FEBDE8F8830000250600207B
:101730002DE9F84F06460F4690469946DDF828B049
:101740000024A246AA222146641C5748425421463E
:10175000641C425402222146641C42540022214649
:10176000641C425400969DF801202146641C42549A
:101770009DF800202146641C425400979DF80120EA
:101780002146641C42549DF800202046611CCCB2C6
:1017900045490A54CDF800809DF801202046611C7F
:1017A000CCB241490A549DF800202046611CCCB2BD
:1017B0003D490A54CDF800909DF801202046611C57
:1017C000CCB239490A549DF800202046611CCCB2A5
:1017D00035490A54CDF800B09DF801202046611C1F
:1017E000CCB231490A549DF800202046611CCCB28D
:1017F0002D490A540B9800909DF801202046611C49
:10180000CCB229490A549DF800202046611CCCB274
:1018100025490A540C9800909DF801202046611C2F
:10182000CCB221490A549DF800202046611CCCB25C
:101830001D490A540D9800909DF801202046611C16
:10184000CCB219490A549DF800202046611CCCB244
:1018500015490A540E9800909DF801202046611CFD
:10186000CCB211490A549DF800202046611CCCB22C
:101870000D490A54201FC870002506E00A48405D43
:10188000504400F0FF0A681CC5B2A542F6DB2046B2
:10189000611CCCB2044901F800A021460248FFF7C0
:1018A000D7FDBDE8F88F0000250600202DE9F043A4
:1018B0002DED048B83B0B0EE408AF0EE608AB0EE7E
:1018C000419A06460F4690460024A1460196AA2258
:1018D0002146641C494842542146641C425401225A
:1018E0002146641C425400222146641C42549FED50
:1018F000440A28EE000ABDEEC00A10EE100A00B23B
:1019000002909DF809202146641C3C4842549DF8F1
:1019100008202146641C42549FED390A28EE800AB3
:10192000BDEEC00A10EE100A00B202909DF8092028
:101930002146641C314842549DF808202046611C11
:10194000CCB22E490A549FED2E0A29EE000ABDEEB4
:10195000C00A10EE100A00B202909DF8092021463C
:10196000601CC4B2254842549DF808202046611CE2
:10197000CCB222490A549DF807202046611CCCB203
:101980001E490A549DF806202046611CCCB21B4912
:101990000A549DF805202046611CCCB217490A5410
:1019A0009DF804202046611CCCB214490A542046FC
:1019B000611CCCB211490F542046611CCCB20F49B6
:1019C00001F80080201FC870002506E00B48405D2C
:1019D000484400F0FF09681CC5B2A542F6DB20466A
:1019E000611CCCB2054901F8009021460348FFF77D
:1019F0002FFD03B0BDEC048BBDE8F083250600206D
:101A00000000C84210B502469FED1D1AF0EE410AD3
:101A10001C4B1D4C247803EB840383ED000A1A4B06
:101A20001B785B1C184C237023461B788B4203DA0F
:101A3000164B1B7803B110BD0023144C23700020FB
:101A40000AE0104B03EB800393ED001A31EE201AED
:101A5000F0EE410A431CD8B28842F2DB0A4B1B78F5
:101A60008B4202DB0023084C237001EE101AB8EE03
:101A7000411AC0EE811AC2ED001A00BFDBE7000078
:101A80000000000028030020BD000020BE00002050
:101A900010B504460623012221460848FEF7B0FF90
:101AA0000648FFF709F800BF02210448FEF774FF5B
:101AB0000028F9D00148FEF76BFF10BD002001405F
:101AC00000B52DED068B83B00020FFF7E1FF00EE9F
:101AD000100AB8EE400AF0EE408A06211C48FFF7D3
:101AE00091FF1B4890ED000AB5EEC00AF1EE10FA26
:101AF00009D090ED000AD0ED010A20EE200ADFEDBA
:101B0000150A80EE208AB0EE000A28EE000A10487E
:101B100080ED020A90ED000A10EE101A0846FEF75A
:101B200086FC41EC190B0A4890ED020A10EE101ADF
:101B30000846FEF77CFC41EC1A0B8DED009B53EC44
:101B40001A2B05A004F022F803B0BDEC068B00BDF3
:101B50008000002000F07F455465737420566F6C40
:101B600074616765203A25302E3266202020746526
:101B70006D703A25302E3066200D0A2000000000DE
:101B800000B58DB00121052002F0ECFB0121080217
:101B900002F008FC01200B9003208DF8300000209B
:101BA0008DF832008DF833000BA9204800F0E9FCD5
:101BB00030200B9001208DF8300000208DF832008D
:101BC00003208DF831000BA9184800F0DAFC102131
:101BD000164800F041FD2021144800F03DFD002092
:101BE00001904FF48030029000200390049001A8EF
:101BF000FEF7B6FE002005908DF818008DF819004C
:101C00000790099001208DF8280005A90848FEF7E3
:101C1000CDFE0623012200210548FEF7F1FE012139
:101C20000348FEF791FE0DB000BD00000000024029
:101C30000020014010B5FFF743FF23480078F0B1C2
:101C4000224890ED020AD0ED030AB4EEE00AF1EE6C
:101C500010FA0ED21E4801780078401C1C4A107001
:101C60000A292FDD0020114608700120194908704B
:101C700028E00020164908701649087022E0134831
:101C800090ED020ADFED140AB4EEE00AF1EE10FA6C
:101C900010D2124801780078401C104A10700A29AE
:101CA00010DD00200E490870114608700120094916
:101CB000087007E001200A490870002007490870F1
:101CC0000449087010BD0000DD00002080000020E5
:101CD0009600002094000020CDCC6C4095000020A0
:101CE0002D00002000BFFEE710B504463348007801
:101CF000C007B0EBC47F0FD004F0010038B1012061
:101D00002F49087002F01AFC02F069FC04E0002080
:101D10002B49087002F063FC2848007800F00200AC
:101D200004F00201884221D004F0020078B10120C1
:101D300003F0C6FE0020234908702348007840F0D5
:101D40002000214908700120204908700EE0002081
:101D500003F0B6FE00201B4908701B48007820F0F5
:101D600020001949087002201849087004F0040086
:101D700040B11348007828B91348007840F00100BA
:101D8000114908700D48007800F0080004F00801BF
:101D900088420FD004F0080030B10B48007840F0C2
:101DA00040000949087005E00748007820F040002D
:101DB000054908700148047010BD0000EB000020C8
:101DC000DD0000202D00002060000020EA0000203F
:101DD0002DE9F0412DED048B05460E4614461F46B5
:101DE00095ED000AAE4880ED000A95ED010A80ED00
:101DF000010A95ED020A80ED020AB4F90000A0F292
:101E0000DC5000EE100AB8EEC00AF2EE080A80EECE
:101E1000201AA44880ED001AB4F90200A0F2DC50A8
:101E200000EE100AB8EEC00AF2EE080A80EE201AA0
:101E30009C4880ED011AB4F9060040F2DC51081A02
:101E400000EE100AB8EEC00AF2EE080A80EE201A80
:101E5000944880ED021A9448007828B19FED930AC7
:101E6000904880ED020A21E08E4890ED020A10EEC3
:101E7000101A0846FEF7DBFA41EC190BB0EE490ADE
:101E8000F0EE690A04F07CFBB0EE408AF0EE608A66
:101E90009FED870B53EC102B51EC180BFEF7DAFA81
:101EA00004D29FED820A7F4880ED020A82480078C2
:101EB000C0F3801018B17A497A4803F019FE7848C7
:101EC00090ED001AF0EE410A764890ED001AB0EE5F
:101ED000410A7A4801F028FF714890ED011AF0EEAE
:101EE000410A704890ED011AB0EE410A744801F0C1
:101EF0001BFF96ED001ADFED731A21EE211AF0EEAA
:101F0000410A6E4890ED0E1AB0EE410A6E4801F09B
:101F10000BFF96ED011ADFED6B1A21EE211AF0EEA0
:101F2000410A674890ED0E1AB0EE410A674801F089
:101F3000FBFE5C4890ED021A6548D0ED001A21EED8
:101F4000211AB0EE410A96ED021ADFED5E1A21EE7B
:101F5000211AF0EE410A5F4801F0E6FEB4F90400F0
:101F6000B42863DDF7B3B4F9040000EE100AB8EE4C
:101F7000C00A5548D0ED0E0A30EE200A5348D0ED85
:101F80000E0A30EE600A5348D0ED0E0A30EE600AB9
:101F9000514880ED000AB4F9040000EE100AB8EED2
:101FA000C00A4948D0ED0E0A30EE600A4748D0ED2D
:101FB0000E0A30EE600A4748D0ED0E0A30EE200AD5
:101FC000464880ED000AB4F9040000EE100AB8EEAD
:101FD000C00A3D48D0ED0E0A30EE600A3B48D0ED15
:101FE0000E0A00E022E030EE200A3A48D0ED0E0A58
:101FF00030EE600A3A4880ED000AB4F9040000EEC1
:10200000100AB8EEC00A3048D0ED0E0A30EE200AB1
:102010002E48D0ED0E0A30EE200A2E48D0ED0E0AE2
:1020200030EE200A2F4880ED000A13E09FED1F0AD2
:10203000294880ED000A9FED1D0A284880ED000A1E
:102040009FED1A0A264880ED000A9FED180A2548E0
:1020500080ED000A234890ED000ABDEEC00A10EEA4
:10206000100A03B21E4890ED000ABDEEC00A10EE41
:10207000100A02B2194890ED000ABDEEC00A10EE37
:10208000100A01B2144890ED000ABDEEC00A10EE2D
:10209000100A00B201F0ACFBBDEC048BBDE8F0818E
:1020A0000406002010060020DC00002000000000D4
:1020B0000000000000001040600000209C04002090
:1020C000D8040020A34C6542500500208C05002058
:1020D00014050020C8050020CC000020D0000020FE
:1020E000D4000020D80000207047000000201A49CA
:1020F000088048808880C880088148814FF4E1606A
:1021000088810A20C881322008824FF4E160488229
:102110000A2088823220C88240F6AC5008833220E0
:1021200048834FF47A708883C8830F2008844FF463
:10213000617048844FF47A7088840F20C8844FF40B
:10214000617008854FF4FA604885322088854FF425
:102150007A70C885704700006804002070B5FFF7EA
:10216000C5FF32242046E11704EB91718910A4EBDE
:102170008101091D09B1012100E0002194FBF1F169
:10218000CDB22A460249034802F036FC70BD000079
:10219000680400200000060810B5042000F08AF84A
:1021A000002831D0002019490860072001F002FC06
:1021B000044604F0200050B10F2001F0DBFC202188
:1021C000272001F093FCFF21E12001F08FFC04F0B7
:1021D000400040B10E4801F003FC02F0B9FA402182
:1021E000272001F083FC04F0100050B10F2001F013
:1021F000C1FC1021272001F079FCFF21E12001F032
:1022000075FC042000F026F810BD0000A00240423A
:10221000500100201CB50121C80302F0C3F80121C0
:10222000880302F0BFF80221012002F033FC00F025
:1022300029F800F015F80420009001208DF8060020
:1022400000208DF804000C208DF80500684600F091
:102250003DF81CBD0149086070470000143C014076
:10226000002006490860091D0860091D0860091D55
:10227000086003480149143108607047003C014080
:10228000FFFF7F001CB50121022002F06BF8042043
:10229000009000208DF8040001208DF80700032035
:1022A0008DF805006946024800F06BF91CBD00007E
:1022B0000004024001460020034A12680A400AB1A5
:1022C000012000E000207047143C01400021234918
:1022D0008279002A3AD00A46126803689A430B466C
:1022E0001A600A1D126803689A430B1D1A6002796E
:1022F00011440A6803681A430A60184A08321268CF
:1023000003689A43154B08331A601A1D1268036854
:102310009A43124B0C331A604279102A0ED11A1FBD
:10232000126803681A430D4B08331A601A1D1268AD
:1023300003681A43094B0C331A600DE007494279D0
:1023400011440A6803681A430A6005E002791144DF
:102350000A6803689A430A6070470000003C014025
:1023600030B10749096841F48061054A116005E010
:102370000349096821F48061014A11607047000037
:10238000003C024070B504460A460026092502B901
:1023900009E0012A01D1160205E0022A01D1160244
:1023A00001E04FF4407600F09FF80546092D28D152
:1023B0001548006820F4407013490860084600681A
:1023C000304308600846006820F0F80008600846BE
:1023D000006844F0020108430B49086008460068A1
:1023E00040F48030086000F07FF805460648006839
:1023F00020F00200044908600846006820F0F80058
:102400000860284670BD0000103C024009201349B6
:10241000096801F48031B1F5803F01D101201CE051
:102420000E49096801F0100109B1062015E00B49B9
:10243000096801F4807109B102200EE007490968BA
:1024400001F0E00109B1072007E00449096801F043
:10245000020109B1082000E0092070470C3C02404D
:102460000348006840F000400149086070470000E0
:10247000103C024030B502460C46092500F034F805
:102480000546092D19D10E48006820F440700C490A
:1024900008600846006840F400700860084600685C
:1024A00040F001000860146000F01EF80546044882
:1024B000006820F0010002490860284630BD000095
:1024C000103C02400548006800F0004028B1044874
:1024D00002490C390860034808607047103C02400C
:1024E00023016745AB89EFCD08B509200090FFF7C0
:1024F0008DFF009002E0FFF789FF00909DF800003B
:102500000128F8D09DF8000008BD00EB810393ED91
:10251000000AF0EE400A29E000E0521E914208DA7B
:1025200000EB820393ED000AB4EEE00AF1EE10FA3C
:10253000F3DA00EB820393ED000A00EB810383EDF5
:10254000000A00E0491C914208DA00EB810393ED98
:10255000000AB4EEE00AF1EE10FAF3D900EB8103C1
:1025600093ED000A00EB820383ED000A9142D3DB76
:1025700000EB8103C3ED000A00EE101AB8EEC00AAA
:102580007047F0B50A4600210023002400BF3DE05B
:10259000012505FA01F3156805EA03049C4234D1CC
:1025A00005684F000326BE40B543056015794E000F
:1025B000B5400668354305601579012D02D01579BF
:1025C000022D16D185684F000326BE40B5438560B5
:1025D00055794E00B54086683543856045680126CB
:1025E0008E40B5434560456896798E40B6B2354316
:1025F0004560C5684F000326BE40B543C560D57928
:102600004E00B540C6683543C560491C1029BFD38C
:10261000F0BDF0B5002300244D07ED0E02FA05F3DE
:10262000CE1000F1200555F826504E07F70E0F2664
:10263000BE40B543CF1000F1200646F82750CE101B
:1026400000F1200555F8265045EA0304CE1000F1AC
:10265000200545F82640F0BD41837047018370474F
:1026600000BFFEE710B52DED068B00202C49086059
:102670009FED2C0B03F090FFB0EE409AF0EE609AC5
:102680009FED2A0B03F088FFB0EE40AAF0EE60AA9F
:1026900053EC192B51EC1A0BFDF730FE41EC180BE3
:1026A000FDF7ACFE410003208840224909688143C0
:1026B000204801609FED1B0B03F06EFFB0EE409AC7
:1026C000F0EE609A9FED190B03F066FFB0EE40AAA2
:1026D000F0EE60AA53EC192B51EC1A0BFDF70EFE2D
:1026E00041EC180BFDF78AFE41000120884011499A
:1026F000096808430F49086000200F49C1F89C028F
:10270000022005F02BF8012005490860022005F0A1
:1027100025F800200849C1F89802BDEC068B10BDD1
:1027200098824042000000000000004000000000CD
:102730000000604000040240008040421CB50121BE
:10274000022001F00FFE4020009001208DF80400CF
:1027500000208DF8070001208DF8060002208DF87A
:10276000050069460B48FFF70CFF80200090012010
:102770008DF804008DF807008DF8060002208DF812
:10278000050069460348FFF7FCFEC0210148FFF73A
:1027900065FF1CBD0004024010B52DED068B002026
:1027A0002C4908609FED2C0B03F0F6FEB0EE409A2A
:1027B000F0EE609A9FED2A0B03F0EEFEB0EE40AA19
:1027C000F0EE60AA53EC192B51EC1A0BFDF796FDB5
:1027D00041EC180BFDF712FE41000320884022490E
:1027E00009688143204801609FED1B0B03F0D4FE74
:1027F000B0EE409AF0EE609A9FED190B03F0CCFE1C
:10280000B0EE40AAF0EE60AA53EC192B51EC1A0B73
:10281000FDF774FD41EC180BFDF7F0FD41000120C0
:1028200088401149096808430F49086001200F4991
:10283000C1F89C02022004F091FF012005490860C4
:10284000022004F08BFF00200849C1F89802BDEC7B
:10285000068B10BD9882404200000000000000403E
:102860000000000000006040000402400080404280
:1028700070B52DED068B054600249FED340B03F05B
:102880008BFEB0EE409AF0EE609A9FED320B03F0B3
:1028900083FEB0EE40AAF0EE60AA53EC192B51EC87
:1028A0001A0BFDF72BFD41EC180BFDF7A7FD4100BE
:1028B00003208840294909688143284801609FED29
:1028C000230B03F069FEB0EE409AF0EE609A9FEDA4
:1028D000210B03F061FEB0EE40AAF0EE60AA53ECCB
:1028E000192B51EC1A0BFDF709FD41EC180BFDF704
:1028F00085FD4100002088401849096808431749B0
:102900000860002616E0002015490860022004F047
:1029100025FF01201349C1F898026006040E1048F3
:102920007C38006808B1601CC4B2012004F016FFB6
:10293000701CC6B2082EE6DB15B1FFF793FE01E06E
:10294000FFF72AFF2046BDEC068B70BD000000009B
:102950000000004000000000000060400004024051
:1029600098824042008040422DE9F04705460F46DC
:1029700016469846002400F0DFF8002141EA4501A0
:10298000C8B200F059F800F0BDF920B100F048F9E4
:102990000120BDE8F087384600F04EF800F0B2F9AB
:1029A00000F0CAF8012101EB4501C8B200F044F87B
:1029B00000F0A8F900240FE0701EA04204D001200E
:1029C000FFF756FF814603E00020FFF751FF8146E5
:1029D00008F80490601CC4B2B442EDDB00F020F9AA
:1029E0000020D6E770B504460D46164600F0A4F860
:1029F000002141EA4401C8B200F01EF800F082F95B
:102A000018B100F00DF9012070BD284600F014F84F
:102A100000F078F900F090F8012101EB4401C8B210
:102A200000F00AF800F06EF90020FFF721FF307087
:102A300000F0F6F80020E7E770B52DED068B0446B0
:102A40009FED360B03F0A8FDB0EE409AF0EE609AD1
:102A50009FED340B03F0A0FDB0EE40AAF0EE60AAAB
:102A600053EC192B51EC1A0BFDF748FC41EC180BF9
:102A7000FDF7C4FC4100032088402C4909688143CC
:102A80002A4801609FED250B03F086FDB0EE409AC9
:102A9000F0EE609A9FED230B03F07EFDB0EE40AAAE
:102AA000F0EE60AA53EC192B51EC1A0BFDF726FC43
:102AB00041EC180BFDF7A2FC4100012088401B49A6
:102AC0000968084319490860002019490860002571
:102AD0001EE0E00920B101201549091D086003E04E
:102AE00000201349091D08606006040E022004F04E
:102AF00035FE01200E490860022004F02FFE002060
:102B00000C49C1F89802022004F028FE681CC5B2E6
:102B1000082DDEDBBDEC068B70BD00000000000060
:102B2000000000400000000000006040000402407F
:102B3000988240420080404210B52DED068B9FEDFB
:102B4000310B03F029FDB0EE409AF0EE609A9FED54
:102B50002F0B03F021FDB0EE40AAF0EE60AA53EC7B
:102B6000192B51EC1A0BFDF7C9FB41EC180BFDF7C3
:102B700045FC4100032088402649096881432548D7
:102B800001609FED200B03F007FDB0EE409AF0EEE0
:102B9000609A9FED1E0B03F0FFFCB0EE40AAF0EE32
:102BA00060AA53EC192B51EC1A0BFDF7A7FB41EC73
:102BB000180BFDF723FC41000120884015490968E6
:102BC000084314490860002013490860012004F0FC
:102BD000C5FD01201149C1F89C0204F0BFFD012090
:102BE0000D490860042004F0B9FD00200B49C1F82C
:102BF0009C02042004F0B2FD002007490860BDECEF
:102C0000068B10BD00000000000000400000000026
:102C10000000604000040240988240420080404230
:102C200010B52DED068B9FED300B03F0B5FCB0EE2B
:102C3000409AF0EE609A9FED2E0B03F0ADFCB0EEE3
:102C400040AAF0EE60AA53EC192B51EC1A0BFDF7D9
:102C500055FB41EC180BFDF7D1FB410003208840E8
:102C6000254909688143244801609FED1F0B03F04B
:102C700093FCB0EE409AF0EE609A9FED1D0B03F0CE
:102C80008BFCB0EE40AAF0EE60AA53EC192B51EC8D
:102C90001A0BFDF733FB41EC180BFDF7AFFB4100BE
:102CA000012088401449096808431349086000203E
:102CB00012490860012004F051FD00201049C1F8BC
:102CC0009C02042004F04AFD01200C490860042005
:102CD00004F044FD01200A49C1F89C02042004F0DC
:102CE0003DFDBDEC068B10BD000000000000004063
:102CF0000000000000006040000402409882404252
:102D00000080404210B52DED068B00249FED310B65
:102D100003F042FCB0EE409AF0EE609A9FED2F0B6C
:102D200003F03AFCB0EE40AAF0EE60AA53EC192B87
:102D300051EC1A0BFDF7E2FA41EC180BFDF75EFBC4
:102D400041000320884027490968814325480160E4
:102D50009FED200B03F020FCB0EE409AF0EE609A5D
:102D60009FED1E0B03F018FCB0EE40AAF0EE60AA37
:102D700053EC192B51EC1A0BFDF7C0FA41EC180B70
:102D8000FDF73CFB410000208840164909680843D4
:102D90001449086001201449086004F0DFFC012098
:102DA0001249C1F8980204F0D9FC09E0601CC4B2D1
:102DB000FA2C05DDFFF734FF0120BDEC068B10BDBA
:102DC0000948803800680028F0D10749091F0860C9
:102DD00000BFF2E70000000000000040000000001B
:102DE00000006040000402409C824042008040425B
:102DF00070B504460D461646FFF79EFE002141EAD7
:102E00004401C8B2FFF718FEFFF77CFF18B1FFF7C7
:102E100007FF012070BD2846FFF70EFEFFF772FF87
:102E20003046FFF709FEFFF76DFF18B1FFF7F8FE18
:102E30000120EFE7FFF7F4FE0020EBE7F0B52DED02
:102E4000108B99B005460E4617462422FE490FA85E
:102E5000FDF7D0F996ED000AF0EE40BA96ED010AC2
:102E6000F0EE408A96ED020AB0EE409A95ED000A27
:102E7000B0EE40CA95ED010AF0EE40CA95ED020AA7
:102E8000B0EE40DAF14890ED000A20EE000AF0EED4
:102E9000409A90ED000AEE48D0ED000A20EE200A9C
:102EA000F0EE40DAE94890ED000AEA48D0ED000A79
:102EB00020EE200AB0EE40EAE44890ED000AE64831
:102EC000D0ED000A20EE200A8DED090AE04890EDD1
:102ED000000A20EE000AB0EE40AA90ED000ADD489C
:102EE000D0ED000A20EE200A8DED080AD84890EDBA
:102EF000000AD948D0ED000A20EE200AF0EE40EAA0
:102F0000D44890ED000A20EE000AF0EE40AA90EDC1
:102F1000000AD148D0ED000A20EE200AB0EE40FAB7
:102F200090ED000A20EE000AB0EE40BA2BEEA80A9F
:102F300020EE090AB5EEC00AF1EE10FA03D119B07D
:102F4000BDEC108BF0BD6BEEAB0A48EEA80A49EE63
:102F5000090AB0EE600A04F043FCB0EE408A2BEEA2
:102F6000880AF0EE40BA28EE880AF0EE408A29EE90
:102F7000080AB0EE409A3EEECE0AF0EE000A60EE8D
:102F800020FA3DEE8F0AF0EE000A20EE200A8DEDC9
:102F90000E0A39EECA0A30EE6A0A30EE0B0A8DEDDF
:102FA0000D0A9DED0D0A28EE800ADDED0E0A09EEF0
:102FB000600A8DED0C0A29EE2F0ADDED0D0A0BEEED
:102FC000E00A8DED0B0A9DED0E0A2BEE800A08EE4D
:102FD000EF0A8DED0A0AA148D0ED000A9DED0C0A1A
:102FE0009FED9F1A40EE010AC0ED000A9D48D0ED0A
:102FF000000A9DED0B0A9FED9A1A40EE010AC0ED02
:10300000000A9948D0ED000A9DED0A0A9FED941A36
:1030100040EE010AC0ED000A9DED0C0AB7EE081A59
:10302000F0EE4C0A41EE000A8C4890ED000A30EEBA
:10303000800AB0EE40CA9DED0B0AB7EE081AF0EE1A
:103040006C0A41EE000A874890ED000A30EE800AD3
:10305000F0EE40CA9DED0A0AB7EE081AF0EE4D0AEE
:1030600041EE000A804890ED000A30EE800AB0EE92
:1030700040DA774890ED000AB1EE400A20EE0C0AE3
:103080007448D0ED000A00EEEC0A7348D0ED000A57
:1030900000EECD0A6D48D0ED000A9FED711A40EEAA
:1030A000010AC0ED000A90ED000A20EE0C0A694802
:1030B000D0ED000A00EE8D0A6748D0ED000A00EE60
:1030C000EC0A6348D0ED000A9FED651A40EE010A54
:1030D000C0ED000A5D4890ED000A20EE2C0A5C4825
:1030E000D0ED000A00EECD0A5B48D0ED000A00EEFC
:1030F0008C0A5848D0ED000A9FED591A40EE010A9B
:10310000C0ED000A514890ED000A20EE0D0A50482B
:10311000D0ED000A00EEAC0A4E48D0ED000A00EEF9
:10312000CC0A4D48D0ED000A9FED4D1A40EE010A41
:10313000C0ED000A4548D0ED000A60EEA00A444800
:1031400090ED001AD0ED001A41EE210A414890EDB1
:10315000001AD0ED001A41EE210A3F4890ED001A06
:10316000D0ED001A41EE210AB0EE600A04F038FBFF
:10317000B0EE408A354890ED000A20EE080A80ED56
:10318000000A334890ED000A20EE080A80ED000A9C
:10319000304890ED000A20EE080A80ED000A2E4823
:1031A00090ED000A20EE080A80ED000A39EE8A0A46
:1031B00030EE6A0A30EE4B0A8DED0F0A9DED080ADB
:1031C000DDED090A30EE200AF0EE000A20EE200ABA
:1031D0008DED100A3EEECE0AF0EE000A20EE200A37
:1031E0008DED110A9DED080ADDED090A30EE600A49
:1031F000F0EE000A20EE200A8DED120A39EECA0A1E
:1032000030EE2A0A30EE4B0A8DED130A3FEE2D0AFE
:10321000F0EE000A20EE200A8DED140A3EEE8E0A32
:10322000F0EE000A20EE200A8DED150A3FEE6D0A41
:10323000F0EE000A20EE200A8DED160A39EECA0AD9
:1032400030EE6A0A12E00000907900089C0000202D
:10325000A0000020A4000020A8000020AC00002056
:103260000AD7A33BB0000020B400002030EE0B0AC8
:103270008DED170A39EE8A0A30EE6A0A30EE4B0AF3
:1032800010EE101A0846FDF7D2F8CDE902019DEDC7
:10329000080ADDED090A30EE200AF0EE000A20EE01
:1032A000200A10EE101A0846FDF7C1F8CDE900011A
:1032B0009DED021B9DED000B02F0C2FF8DED040B96
:1032C0009FED440B53EC102B9DED040B51EC100BB8
:1032D000FCF7A2FFCDE906019DED060B51EC100BAA
:1032E000FDF7E8F8B8603EEECE0AF0EE000A20EEF8
:1032F000200A10EE101A0846FDF799F8CDE90001F2
:103300009DED000B02F080FC8DED020B9DED020B9C
:1033100051EC100B81F000419FED2E0B53EC102B64
:10332000CDE904019DED040B51EC100BFCF774FF8B
:10333000CDE906019DED060B51EC100BFDF7BAF837
:10334000786039EECA0A30EE6A0A30EE0B0A10EEE7
:10335000101A0846FDF76BF8B0EE000A2FEE000ACF
:10336000F0EE000A00EEAD0ACDE9020110EE101AEF
:103370000846FDF75CF8CDE900019DED021B9DEDCF
:10338000000B02F05DFF8DED040B9FED120B53EC73
:10339000102B9DED040B51EC100BFCF73DFFCDE91C
:1033A00006019DED060B51EC100BFDF783F838601C
:1033B00000240BE00FA800EB840090ED000A074802
:1033C00000EB840080ED000A601CC4B2092CF1DB24
:1033D00000BFB4E50000006066A64C40C4010020B8
:1033E0001CB50121022000F0BDFF4FF48070009059
:1033F00001208DF8040000208DF807008DF80600EC
:103400008DF8050069460448FFF7BBF84FF480715A
:103410000148FFF723F91CBD0004024010B50A481B
:10342000007840B10020084908704FF480710748C7
:10343000FFF712F906E00120034908700102034872
:10344000FFF70CF910BD00002C0000200004024022
:1034500000B589B00121022000F094FF01F02CFD9D
:1034600040F2E73007906320ADF818000020ADF877
:103470002000ADF81A0006A91B4801F07BFF602070
:10348000ADF804000120ADF8060000200390ADF86F
:10349000100001A9144801F021FE0821124801F092
:1034A0005BFE01A9104801F061FE08210E4801F001
:1034B000AFFE01A90C4801F0B9FE08210A4801F04D
:1034C00005FF01A9084801F00BFF0821064801F09B
:1034D00043FF0121044801F0CBFD0121024801F026
:1034E000D6FD09B000BD00000004004010B504E0A6
:1034F00004A002F04BFB01F065F800F063F800282F
:10350000F6D010BD0D4D505539323530206E6F203C
:10351000636F6E6E6563742E2E2E0D0A0000000020
:1035200010B5FFF7E3FF80216B2000F054F8642012
:1035300004F0F0F801216B2000F04DF800216C2020
:1035400000F049F80021382000F045F8002119204A
:1035500000F041F808211C2000F03DF818211B2044
:1035600000F039F804211D2000F035F802211A205E
:1035700000F031F810BD000010B5034A0E213B20C9
:1035800000F011F810BD00002201002070B50446C3
:103590000D462A4621466920FFF724FA08B101208A
:1035A00070BD0020FCE770B504460D461646334654
:1035B0002A4621466920FFF7D7F908B1012070BDDE
:1035C0000020FCE710B500F009F9712801D10120B5
:1035D00010BD0020FCE770B504460D462A46214682
:1035E0006920FFF705FC08B1012070BD0020FCE751
:1035F0000FB52B480088A0B90020ADF80000ADF849
:103600000200ADF8040027490860274908602749EF
:10361000086001202249088000230020108050808B
:103620009080BDF900001F49096808441D490860E1
:10363000BDF902001C49096808441B490860BDF92E
:103640000400C01A19490968084418490860144858
:103650000088C8281DD1134800681149098890FBCB
:10366000F1F000B21080104800680D49098890FB05
:10367000F1F000B250800D4800680949098890FBBC
:10368000F1F000B29080002005490880012004B0CC
:1036900000BD03480088401C014908800020F6E76F
:1036A0007000002064000020680000206C000020F2
:1036B0001CB5444840784349097840EA0120424912
:1036C0000988401A00B2414908803E48C0783D4907
:1036D000897840EA01203C494988401A00B23B49B8
:1036E0004880384840793749097940EA012036490D
:1036F0008988401A00B2354988803248407A314979
:10370000097A40EA012032490988401A00B2314959
:1037100008802C48C07A2B49897A40EA01202C493C
:103720004988401A00B22B4948802648407B2549E9
:10373000097B40EA012026498988401A00B22549C0
:1037400088802548007800F00100E0B10846016853
:1037500000918088ADF8040000231D4ADDE90001D6
:10376000FFF746FF78B11C48007820F001001A49A5
:10377000087000F095FB00F0F6FE1748007840F066
:1037800002001549087014480078C0F34000B8B131
:103790000E48016800918088ADF804004FF4005392
:1037A000094ADDE90001FFF723FF48B10A48007824
:1037B00020F002000849087000F072FB00F076FE6D
:1037C0001CBD0000220100204E00002054000020FB
:1037D000480000205A0000206000002008B569461B
:1037E0007520FFF7D3FE9DF8000008BD00BFFEE77F
:1037F00010B5B0F57A7F01DD4FF47A70B1F57A7FBC
:1038000001DD4FF47A71B2F57A7F01DD4FF47A72FF
:10381000B3F57A7F01DD4FF47A73002800DA0020D7
:10382000002900DA0021002A00DA0022002B00DA49
:103830000023044C2060241D2160241D2260241DCF
:10384000236010BD340400407047000010B504E050
:1038500004A002F09BF900F06EFF00F0D9F80028F8
:10386000F6D010BD0D4E524632344C3031206E6FC2
:1038700020636F6E6E6563742E2E2E0D0A0000009D
:1038800010B500201A4908600321232000F02EF90A
:1038900005221849302000F00BF9052215492A208D
:1038A00000F006F91A21242000F020F9012122203D
:1038B00000F01CF90121212000F018F9202131200D
:1038C00000F014F905220C492A2000F0F1F81E211D
:1038D000252000F00BF92721262000F007F90F2002
:1038E00000F048F901200549C1F8A00210BD000010
:1038F000A0024042730000207800002000004042F7
:103900001CB50121032000F02DFD01208DF80400DD
:103910008DF8070000208DF8060002208DF80500C4
:10392000C002009069461048FEF72BFE4FF480510C
:103930000D48FEF791FE4FF48070009069460B48E9
:10394000FEF71FFE4FF480710848FEF785FE00F079
:1039500049FFFFF77BFF012005490860002005496A
:10396000C1F8A0021CBD000000040240000002409B
:10397000B0824042000040422DE9F04107460C462B
:10398000154600200A490860384600F08BFF804643
:10399000002605E0FF2000F085FF2070641C761CE7
:1039A000AE42F7DB0120024908604046BDE8F081E5
:1039B000B082404270B504460020074908602046A6
:1039C00000F070FFFF2000F06DFF05460120034965
:1039D000C1F8B002284670BDB0824042008040422B
:1039E00010B50446002008490860202221466120C5
:1039F000FFF7C2FFFF21E22000F078F80120034921
:103A0000C1F8A00210BD0000A002404200004042E8
:103A10001CB510A103C9CDE900010522694630207B
:103A200000F046F8052269461020FFF7A5FF0024A4
:103A300006E01DF80400A52800D003E0601CC4B215
:103A4000052CF6DB00BF052C01D000201CBD012099
:103A5000FCE70000A5A5A5A5A500000010B504463B
:103A600000201049086005220F49302000F020F89E
:103A700005220D492A2000F01BF820222146A02013
:103A800000F016F80E21202000F030F87E212720CB
:103A900000F02CF801200549C1F8A0020A2003F02B
:103AA0005DFE10BDA00240427300002000004042B5
:103AB0002DE9F04107460C46154600200A490860EA
:103AC000384600F0EFFE8046002604E0207800F043
:103AD000E9FE641C761CAE42F8DB01200249086056
:103AE0004046BDE8F0810000B082404270B5054616
:103AF0000C46002007490860284600F0D3FE064621
:103B0000204600F0CFFE01200349C1F8B002304644
:103B100070BD0000B08240420080404210B51248A3
:103B2000007832280EDD4FF0E0218869FCF75AFB5F
:103B3000FCF74EFB322190FBF1F201FB12000A4927
:103B400008700FE00948007907490978884209D0D0
:103B50000548007805490871034800780449087150
:103B6000FFF78EFE10BD00007200002073000020E1
:103B70007800002010B504460E2C0FD1002011490A
:103B800008600E212020FFF7B1FF7E212720FFF7DC
:103B9000ADFF01200C49C1F8A00211E00020094945
:103BA00008600F212020FFF7A1FF7E212720FFF7CB
:103BB0009DFF01200449C1F8A002C82003F0CEFDFA
:103BC00010BD0000A00240420000404210B50F4866
:103BD0000078C8B90E48007850B10E4800780E49F8
:103BE0000978884204D101F0E3FE00F02FFD0BE0DC
:103BF0000748007820B10948007808B900F09EFC19
:103C0000044800780449087010BD0000DC00002062
:103C1000DD000020E0000020EC00002094000020E7
:103C200008B54FF4A06000F075F81E208DF8000074
:103C300001208DF801008DF802008DF80300684620
:103C400000F02CF826208DF8000002208DF80100ED
:103C500001208DF802008DF80300684600F01EF880
:103C600025208DF8000002208DF801008DF802005B
:103C700001208DF80300684600F010F808208DF848
:103C8000000002208DF8010003208DF802000120C1
:103C90008DF80300684600F001F808BD70B50021FA
:103CA00000230F22C4781CB3174C246804F4E0648A
:103CB000C4F5E064C4F30721C1F10404E3B20A418E
:103CC00044789C40E1B28478144021430C07210ED3
:103CD0000E4C05786155047804F01F050124AC40B2
:103CE00005786D11AD0005F1E025C5F8004109E04A
:103CF000047804F01F050124AC40054D06787611C8
:103D000045F8264070BD00000CED00E000E400E046
:103D100080E100E002490143024A1160704700005F
:103D20000000FA050CED00E030EE601A80ED031A99
:103D300090ED031AD0ED061A31EE611A80ED051AE6
:103D400090ED001AD0ED031A21EE211A80ED0B1A26
:103D500090F8281001EE101AB8EE411AD0ED011AB1
:103D600021EE211AD0ED041A21EE211A80ED0C1A51
:103D700090ED021AD0ED051A21EE211A80ED0D1AF0
:103D800090ED0B1AD0ED0C1A31EE211AD0ED0D1A70
:103D900031EE211A80ED0E1A27490978012942D106
:103DA0002649B1F90410B4293DDB90ED081AB4EEB0
:103DB000E01AF1EE10FA08D390ED081AB1EE411AAC
:103DC000B4EEE01AF1EE10FA03DD002180F82810BD
:103DD0002DE0012180F8281090ED041AD0ED031A8F
:103DE00031EE211A80ED041A90ED041AD0ED091A73
:103DF000B4EEE11AF1EE10FA03DD90ED091A80ED50
:103E0000041A90ED041AD0ED091AF1EE611AB4EE1D
:103E1000E11AF1EE10FA0AD290ED091AB1EE411A48
:103E200080ED041A03E09FED061A80ED041A90ED70
:103E3000031A80ED061A7047DD000020E200002022
:103E40000000000070B532242046E11704EB9171A8
:103E50008910A4EB8101091D09B1012100E00021B5
:103E600094FBF1F1CDB22A460B490C4800F0B0FDAD
:103E700001F0C2FA0848808C4FF6FF71884209D1E0
:103E80000548C08B884205D10348408D884201D146
:103E9000FEF764F970BD0000680400200000060809
:103EA00070B500F01BF832242046E11704EB917145
:103EB0008910A4EB8101091D09B1012100E0002155
:103EC00094FBF1F1CDB22A460249034800F094FD7B
:103ED00070BD0000680400200000060877480088D4
:103EE0007749088075484088488074488088888071
:103EF00074480088C8807348408808817148808869
:103F00004881714890ED000ADFED700A20EE200A2A
:103F1000BCEEC00A10EE100A88816B4890ED010AD1
:103F2000DFED6A0A20EE200ABCEEC00A10EE100A8D
:103F3000C881654890ED020ADFED640A20EE200A90
:103F4000BCEEC00A10EE100A0882614890ED000A2B
:103F5000DFED5E0A20EE200ABCEEC00A10EE100A69
:103F600048825B4890ED010ADFED580A20EE200AF6
:103F7000BCEEC00A10EE100A8882554890ED020A85
:103F8000DFED520A20EE200ABCEEC00A10EE100A45
:103F9000C882504890ED000ADFED4C0A20EE200A5E
:103FA000BCEEC00A10EE100A08834A4890ED010AE0
:103FB000DFED460A20EE200ABCEEC00A10EE100A21
:103FC0004883444890ED020ADFED400A20EE200AC3
:103FD000BCEEC00A10EE100A88833F4890ED000A3C
:103FE000DFED3A0A20EE200ABCEEC00A10EE100AFD
:103FF000C883394890ED010ADFED340A20EE200A2B
:10400000BCEEC00A10EE100A0884334890ED020A94
:10401000DFED2E0A20EE200ABCEEC00A10EE100AD8
:1040200048842E4890ED000ADFED280A20EE200A91
:10403000BCEEC00A10EE100A8884284890ED010AF0
:10404000DFED220A20EE200ABCEEC00A10EE100AB4
:10405000C884224890ED020ADFED1C0A20EE200AF7
:10406000BCEEC00A10EE100A08851D4890ED000A4B
:10407000DFED160A20EE200ABCEEC00A10EE100A90
:104080004885174890ED010ADFED100A20EE200A5E
:10409000BCEEC00A10EE100A8885114890ED020AA5
:1040A000DFED0A0A20EE200ABCEEC00A10EE100A6C
:1040B000C8850C4800780886704700004E00002034
:1040C00068040020480000209C04002000007A447E
:1040D000D804002014050020500500208C05002085
:1040E000C80500207200002070470000002027490A
:1040F00081F828009FED260A084680ED080A9FED0A
:10410000250A80ED090A0020234981F828009FED47
:10411000230A084680ED080A9FED210A80ED090A6E
:104120000020204981F828009FED190A084680EDFB
:10413000080A9FED180A80ED090A00201A4981F843
:1041400028009FED160A084680ED080A9FED140A24
:1041500080ED090A0020154981F828009FED140A16
:10416000084680ED080A9FED130A80ED090A002039
:10417000114981F828009FED090A084680ED080AD8
:104180009FED0E0A80ED090A7047000050050020DF
:1041900000007A430000FA449C04002000000C4216
:1041A00000007A448C050020D8040020C8050020B7
:1041B0000000164300009644140500200000484308
:1041C00010B5FFF7D9F9FFF773FA0C224D494E48A5
:1041D00000F07EFD4B4890ED000ADFED4C0A20EE2A
:1041E000200ADFED4B0A20EE200A80ED000A90ED58
:1041F000010ADFED460A20EE200ADFED450A20EE37
:10420000200A80ED010A90ED020ADFED400A20EE5F
:10421000200ADFED3F0A20EE200A80ED020A3D4829
:10422000B0F9000000EE100AB8EEC00ADFED3A0A5D
:1042300020EE200A394880ED000A3648B0F9020025
:1042400000EE100AB8EEC00ADFED330A20EE200AB5
:10425000324880ED010A2F48B0F9040000EE100A40
:10426000B8EEC00ADFED2C0A20EE200A2B4880EDC4
:10427000020A2B480078E8B3224890ED000ADFEDEF
:10428000290A20EE200A2848D0ED000A9FED271ABF
:1042900000EE810A1B4880ED000A90ED010ADFED77
:1042A000210A20EE200A2048D0ED010A9FED1F1AB6
:1042B00000EE810A134880ED010A90ED020ADFED5D
:1042C000190A20EE200A1848D0ED020A9FED171AAD
:1042D00000EE810A0B4880ED020A90ED000A1248B8
:1042E00080ED000A074890ED010A0F4880ED010AB1
:1042F000044800E004E090ED020A0B4880ED020A59
:1043000010BD0000940100205400002040DAFF3866
:104310000AE81C415A00002045798B3A7C010020B4
:10432000B80000206666663FAC010020CDCCCC3DD5
:10433000F0B507460D461646B54212DA3246294612
:104340003846FEF7E2F8BDEEC00A10EE104A621ED3
:1043500029463846FFF7ECFF3246611C3846FFF726
:10436000E7FFF0BD29B1064A12680243044B1A6008
:1043700004E0034A12688243014B1A607047000050
:104380003038024029B1064A12680243044B1A60D1
:1043900004E0034A12688243014B1A607047000030
:1043A0004038024029B1064A12680243044B1A60A1
:1043B00004E0034A12688243014B1A607047000010
:1043C00044380240F0B500210022002402250026D6
:1043D0000223324F3F6807F00C0121B1042905D0B8
:1043E000082937D105E02E4F076036E02D4F0760D2
:1043F00033E02A4F3F1F3F68C7F38056274F3F1FC8
:104400003F6807F03F036EB1264FB7FBF3F7DFF8C5
:104410008CC0ACF1040CDCF800C0CCF3881C07FBAA
:104420000CF40CE01E4FB7FBF3F7DFF870C0ACF1F3
:10443000040CDCF800C0CCF3881C07FB0CF4174F0D
:104440003F1F3F68C7F301477F1C7D00B4FBF5F7B2
:10445000076002E0124F076000BF00BF0F4F3F68C8
:1044600007F0F0010909104F7A5C0768D7404760F0
:104470000A4F3F6807F4E051890A0B4F7A5C47689E
:10448000D7408760054F3F6807F46041490B064FEE
:104490007A5C4768D740C760F0BD0000083802402A
:1044A0000024F40000127A001400002010B500F07F
:1044B00096F800240AE000F034F8642003F02AF9AA
:1044C00000F08DF8642003F025F9641C052CF2DB64
:1044D00000F085F810BD000000B50948007868B10B
:1044E0000848007828B100200649087000F0AEF8AE
:1044F00004E001200349087000F071F800BD0000DD
:10450000940000203000002010B5002406E0FF22B7
:104510000021084600F0A7F8601CC4B2042CF6DBAA
:1045200010BD10B5002406E0FF221146002000F067
:104530009AF8601CC4B2042CF6DB10BD10B5002440
:104540000EE0022C05DA00221146FF2000F08BF865
:1045500004E0FF221146104600F085F8601CC4B24A
:10456000042CEEDB10BD10B500F039F800240AE091
:10457000FFF7CAFF642003F0CDF800F030F86420A4
:1045800003F0C8F8641C052CF2DB00F028F810BD1D
:104590001CB501210220FFF7E5FE4FF400700090EA
:1045A00001208DF8040000208DF807008DF806002A
:1045B00003208DF8050069460148FDF7E2FF1CBDA8
:1045C0000004024010B5002406E0FF22002110463E
:1045D00000F049F8601CC4B2042CF6DB10BD10B525
:1045E000002406E000221146104600F03CF8601C52
:1045F000C4B2042CF6DB10BD2DE9F04100250026E5
:10460000002700241EE0FBF7E3FDFF2190FBF1F201
:1046100001FB1200C5B2FBF7DBFDFF2190FBF1F2BD
:1046200001FB1200C6B2FBF7D3FDFF2190FBF1F2B4
:1046300001FB1200C7B23A463146284600F013F893
:10464000601CC4B2042CDEDBBDE8F08110B5002490
:1046500006E000221146FF2000F005F8601CC4B2FD
:10466000042CF6DB10BD70B506460C4615462046F8
:1046700000F04EF8304600F04BF8284600F048F8BD
:1046800070BD0000032109200E4A128842F4007216
:104690000C4B1A8000E000BF0A1EA1F10103D9B241
:1046A000F9D1084A921C128842F40072054B9B1CF7
:1046B0001A8001E000BF00BF021EA0F10103D8B2C2
:1046C000F8D1704718040240062106200F4A1288CC
:1046D00042F400720D4B1A8001E000BF00BF0A1EB9
:1046E000A1F10103D9B2F8D1084A921C128842F410
:1046F0000072064B9B1C1A8001E000BF00BF021E27
:10470000A0F10103D8B2F8D17047000018040240AC
:1047100030B50546002400BF0AE005FA04F000F0B9
:10472000800010B1FFF7D0FF01E0FFF7ABFF641C82
:10473000082CF2DB30BD10B5002406E00022FF217A
:104740000846FFF790FF601CC4B2042CF6DB10BDD6
:1047500010B500201F4908701F48C07AA52800D056
:1047600010BD1D48007800F0010020B31A48807881
:104770001949C97840EA012000B21849C880164892
:1047800000791549497940EA012000B2134988802F
:10479000114880791049C97940EA012000B20F49D7
:1047A00008800D48007A0C49497A40EA012000B29D
:1047B0000A49488008E00848007800F0080018B16D
:1047C00005494878FDF790FA0348807A0449087053
:1047D00000BFC5E7DC00002050010020E2000020FF
:1047E000E000002000B587B001210220FFF7BAFDEC
:1047F00001218803FFF7C6FD05220D212748FDF79B
:1048000008FF05220E212548FDF703FF05220F2191
:104810002248FDF7FEFE02208DF818008DF81B00DF
:1048200000208DF81A0002208DF819000003059071
:1048300005A91A48FDF7A5FE4FF48040059005A98B
:104840001648FDF79EFE4FF40040059005A9134859
:10485000FDF797FE4FF48270ADF802000020ADF82E
:104860000000ADF80400ADF80600ADF808004FF404
:104870000070ADF80A001020ADF80C000020ADF873
:104880000E000720ADF810006946054800F04EF80C
:104890000121034800F030F807B000BD00040240D9
:1048A0000038004070B50546002405E0601CC4B225
:1048B000C82C01DD002070BD02210E4800F028F850
:1048C0000028F3D029460B4800F02EF8002405E01C
:1048D000601CC4B2C82C01DD0020ECE701210548B2
:1048E00000F016F80028F3D0024800F01AF8C0B221
:1048F000E1E700000038004021B1028842F04002A8
:10490000028004E002884FF6BF731A4002807047AD
:104910000246002013890B400BB1012000E000206B
:1049200070470146888970478181704710B5002221
:10493000028802F441520B884C8823438C8823431D
:10494000CC8823430C8923434C8923438C892343FC
:10495000CC8923431A430280838B4FF2FF74234098
:1049600083830B8A038210BD01461248814201D223
:10497000002070471048814201D20820F9E70F4813
:10498000814201D21020F4E70D48814201D2182063
:10499000EFE70C48814201D22020EAE70A48814231
:1049A00001D22820E5E70948814201D23020E0E722
:1049B0003820DEE7004000080080000800C0000842
:1049C00000000108000002080000040800000608BA
:1049D00030B503460C461546002206E0184600F0A6
:1049E00007F844F822001B1D521CAA42F6D330BD22
:1049F00001460868704700002DE9F04704460E465E
:104A000017464FF009080025A946B4F1006F02D3FC
:104A100004F0030008B1BDE8F087FDF753FD002066
:104A2000FDF79EFC254604EB87091848854215D200
:104A300011E02846FFF7DCFF401C58B12846FFF77D
:104A400093FF82460221FDF79DFC8046B8F1090FD5
:104A500001D002E02D1D4D45EBD300BFB8F1090F89
:104A60000CD108E020463168FDF704FD092800D08C
:104A700003E0241D361D4C45F4D300BF0120FDF793
:104A80006FFCFDF7EDFC00BFC5E700000000FF1F55
:104A90007047000030B500228B071C0F0F2303FA6C
:104AA00004F20B4B8C1053F824309343084C8D10B8
:104AB00044F8253023468C1053F824308C07240FFB
:104AC00000FA04F42343024C8D1044F8253030BD25
:104AD0000838014008B53D48007830B13C480078BE
:104AE00040F010003A49087005E03948007820F09D
:104AF000100037490870FF203649087034480078A4
:104B000048703548B0F9040000909DF801008870A5
:104B10009DF80000C870314890ED020ADFED300AC0
:104B200020EE200ABDEEC00A10EE100A00B200907E
:104B30009DF8010008719DF800004871274890ED2C
:104B4000010ADFED270A20EE200ABDEEC00A10EEB2
:104B5000100A00B200909DF8010088719DF80000D5
:104B6000C8711E4890ED000ADFED1D0A20EE200AF4
:104B7000BDEEC00A10EE100A00B200909DF80100D0
:104B800008729DF800004872002000909DF8010016
:104B900088729DF80000C872124890ED020ADFED9D
:104BA000100A20EE200ABDEEC00A10EE100A00B274
:104BB00000909DF8010008739DF800004873A5203F
:104BC00088730846FEF74AFF08BD0000DD0000209C
:104BD0006000002030010020E20000207001002071
:104BE0000000C842800000200CB500200190009019
:104BF0003348006840F480303149086000BF3048D5
:104C0000006800F4003000900198401C019000986A
:104C100018B90198B0F5A04FF1D12948006800F407
:104C2000003010B10120009001E0002000900098B9
:104C3000012844D122484030006840F0805020498B
:104C4000403108601F48006840F440401D4908603A
:104C50001B48083000681A49083108600846006897
:104C600008600846006840F4805008601648091F34
:104C70000860081F006840F08070091F086000BFCE
:104C80000F48006800F000700028F9D040F2027070
:104C90000E4908600A480830006820F003000849FF
:104CA000083108600846006840F00200086000BF54
:104CB00003480830006800F00C000828F8D10CBD4B
:104CC000003802400070004008644107003C024088
:104CD000F0B52DED048B06460F4614469FED4B0AAA
:104CE000B0EE408A9FED490AF0EE408A9FED470AF8
:104CF000B0EE409AB6F9000000EE100AB8EEC00A15
:104D000043484449097800EB810080ED000AB6F978
:104D1000020000EE100AB8EEC00A3F483D4909788B
:104D200000EB810080ED000AB6F9040000EE100AE5
:104D3000B8EEC00A39483749097800EB810080EDA8
:104D4000000A34480078401C324908700846007850
:104D5000A04205DA3248007810B1BDEC048BF0BDFA
:104D600000202F490870621E00212948FFF7E0FA51
:104D7000621E00212848FFF7DBFA621E0021274847
:104D8000FFF7D6FA01251CE0214800EB850090EDE5
:104D9000000A30EE080AB0EE408A1F4800EB85009A
:104DA00090ED000A30EE280AF0EE408A1B4800EB36
:104DB000850090ED000A30EE090AB0EE409A681CBA
:104DC000C5B2601EA842DFDC12480078A04202DBB8
:104DD000002010490870A01E00EE100AB8EEC00AAC
:104DE000C8EE000AC7ED000A00EE100AB8EEC00ACD
:104DF000C8EE800AC7ED010A00EE100AB8EEC00A3C
:104E0000C9EE000AC7ED020A00BFA6E700000000D5
:104E100038020020BB00002088020020D8020020B9
:104E2000BC000020042808D14FF0E021096941F0BE
:104E300004014FF0E022116107E04FF0E021096921
:104E400021F004014FF0E02211617047704700002B
:104E500010B51548006840F4700013490860134805
:104E6000006840F001001149086000200F49083136
:104E700008600E4800680E4908400C4908600D485B
:104E8000091D0860081F006820F48020091F0860C1
:104E9000002006490C310860FFF7A6FE4FF00060C5
:104EA00001498039086010BD88ED00E000380240FB
:104EB000FFFFF6FE103000241CB501210220FFF791
:104EC00061FA01210320FFF74DFA02208DF804005A
:104ED00003208DF8050000208DF8060001208DF8D4
:104EE0000700C020009069460E48FDF74AFB0320EA
:104EF000009069460C48FDF744FB02220621094850
:104F0000FDF787FB022207210648FDF782FB0222FC
:104F100000210548FDF77DFB022201210248FDF733
:104F200078FB1CBD000002400004024010B50121C6
:104F3000324800F0B8F800285AD031480088401CA8
:104F40002F4908802F480088401C2E4908802E4891
:104F50000088401C2C4908802C480088401C2B49A4
:104F600008802B480088401C29490880294800886F
:104F7000401C2849088022480088022805DB0020C0
:104F80001F4908800120244908701E480088052810
:104F900005DB00201B4908800120204908701A48C1
:104FA00000880A2805DB00201749088001201C49D9
:104FB000087016480088642805DB00201349088023
:104FC00001201849087012480088C82805DB002015
:104FD0000F4908800120144908700E480088B0F578
:104FE000C87F05DB00200B49088001200F490870AD
:104FF0000121024800F048F810BD00000008004000
:105000003A0000203C0000203E000020400000202C
:10501000420000204400002037000020340000201F
:105020003300002032000020350000203600002030
:105030000EB501210420FFF7A5F940F2E7300190F9
:105040006320ADF800000020ADF80800ADF80200C4
:105050006946064800F08EF901221146034800F027
:1050600033F80121014800F012F80EBD000800409D
:1050700021B1028842F08002028004E002884FF6EB
:105080007F731A4002807047CA430282704721B181
:10509000028842F00102028004E002884FF6FE73AB
:1050A0001A400280704730B50246002000230024D9
:1050B000158A05EA0103958905EA010413B10CB1CB
:1050C000012000E0002030BD1AB183890B438381A9
:1050D00002E083898B4383817047000070B5002410
:1050E00000220023058C4FF6FE7635400584028CA5
:1050F0008388048B4FF68F752C40B51E2C400D888D
:105100002C43751E2A408D892A434D882A43104D11
:10511000A84202D00F4DA84213D14FF6F7752A408E
:10512000CD892A434FF6FB752A408D882A434FF6D6
:10513000FF652B404FF6FF552B400D8A2B434D8AC0
:105140002B43838004838D684563028470BD000017
:1051500000000140000401400A460021018B4FF687
:10516000F7731940114301837047000070B50024A4
:1051700000220023058C4FF6EF7635400584028C23
:105180008388048B48F6FF752C404FF6FF452C4072
:105190000D884FF6FF7606EA05252C434FF6DF759E
:1051A0002A408D8906EA05152A434D8806EA051529
:1051B0002A43154DA84202D0144DA8421DD14FF6E6
:1051C0007F752A40CD894FF6FF7606EA05152A43FA
:1051D0004FF6BF752A408D8806EA05152A434FF61B
:1051E000FF352B404FF2FF752B400D8A06EA8505EF
:1051F0002B434D8A06EA85052B43838004838D6803
:105200008563028470BD000000000140000401407D
:105210000A460021018B4FF2FF7319404FF6FF73CE
:1052200003EA0223194301837047000070B500248C
:1052300000220023058C4FF6FF6635400584028C62
:105240008388848B4FF68F752C404FF6FC752C406D
:105250000D882C434FF6FF552A408D894FF6FF7677
:1052600006EA05252A434D8806EA05252A43154DF9
:10527000A84202D0144DA8421DD14FF2FF752A401A
:10528000CD894FF6FF7606EA05252A434FF6FF350E
:105290002A408D8806EA05252A434EF6FF752B40E5
:1052A0004DF6FF752B400D8A06EA05152B434D8AF6
:1052B00006EA05152B43838084838D68C5630284C9
:1052C00070BD000000000140000401400A460021BA
:1052D000818B4FF6F77319401143818370470000AB
:1052E00070B5002200230024058C4EF6FF76354071
:1052F0000584038C8488828B48F6FF752A404FF61C
:10530000FF452A400D884FF6FF7606EA05252A4319
:105310004DF6FF752B408D8906EA05352B434D88E8
:1053200006EA05352B430A4DA84202D0094DA84292
:1053300008D14BF6FF752C400D8A4FF6FF7606EA32
:1053400085152C43848082838D680564038470BD39
:1053500000000140000401400A460021818B4FF209
:10536000FF7319404FF6FF7303EA02231943818349
:105370007047000000220288184B98420ED0184B4C
:1053800098420BD0B0F1804F08D0164B984205D010
:10539000154B984202D0154B984204D14FF68F73AB
:1053A0001A404B881A43124B984207D0114B98422F
:1053B00004D04FF6FF431A400B891A4302804B6812
:1053C000C3620B880385054B984202D0044B984278
:1053D00001D18B7A0386012383827047000001404C
:1053E000000401400004004000080040000C0040A0
:1053F00000100040001400408448008800B2844936
:1054000008808248408800B248808048808800B286
:1054100088807E48C08800B27E4908807B48008929
:1054200000B248807948408900B2888077488089F6
:1054300000EE100AB8EE400ADFED770A80EE201A7F
:10544000764880ED001A7148C08900EE100AB8EE67
:10545000400ADFED710A80EE201A704880ED011AD3
:105460006A48008A00EE100AB8EE400ADFED6A0AC8
:1054700080EE201A694880ED021A6448408A00EEE6
:10548000100AB8EE400ADFED640A80EE201A644884
:1054900080ED001A5D48808A00EE100AB8EE400ADE
:1054A000DFED5D0A80EE201A5D4880ED011A574855
:1054B000C08A00EE100AB8EE400ADFED570A80EE0F
:1054C000201A574880ED021A5048008B00EE100A4F
:1054D000B8EE400ADFED500A80EE201A514880ED08
:1054E000001A4A48408B00EE100AB8EE400ADFED81
:1054F0004A0A80EE201A4B4880ED011A4348808BFF
:1055000000EE100AB8EE400ADFED430A80EE201AE2
:10551000444880ED021A3D48C08B00EE100AB8EEF8
:10552000400ADFED3D0A80EE201A3F4880ED001A68
:105530003648008C00EE100AB8EE400ADFED360A5D
:1055400080EE201A384880ED011A3048408C00EE79
:10555000100AB8EE400ADFED300A80EE201A324819
:1055600080ED021A2948808C00EE100AB8EE400A3D
:10557000DFED290A80EE201A2C4880ED001A23481E
:10558000C08C00EE100AB8EE400ADFED230A80EE70
:10559000201A264880ED011A1C48008D00EE100AE2
:1055A000B8EE400ADFED1C0A80EE201A1F4880ED9D
:1055B000021A1648408D00EE100AB8EE400ADFEDE0
:1055C000160A80EE201A1A4880ED001A0F48808DC6
:1055D00000EE100AB8EE400ADFED0F0A80EE201A46
:1055E000134880ED011A0948C08D00EE100AB8EE8C
:1055F000400ADFED090A80EE201A0D4880ED021AFC
:10560000024890F830000B49087070476804002089
:105610004E0000204800002000007A449C04002036
:10562000D804002014050020500500208C0500201F
:10563000C8050020720000201CB501210846FEF7B5
:1056400091FE072209211448FCF7E3FF07220A21F3
:105650001148FCF7DEFF4FF40070009002208DF837
:10566000040000208DF807008DF8060002208DF858
:10567000050069460848FCF784FF4FF480600090FD
:1056800002208DF8040001208DF8070069460248C9
:10569000FCF777FF1CBD00000000024070B500BFA2
:1056A00040F225510E4800F0ADF830B10C4880882A
:1056B000C4B22046FBF734FE0BE040F22441084818
:1056C00000F0A0F828B106480088C5B204488088D8
:1056D000C5B240F22551024800F06CF870BD0000E0
:1056E000001001401FB50446FFF7A6FF012110205E
:1056F000FEF758FE00940C20ADF80A000020ADF82B
:105700000800ADF80600ADF80400ADF80C006946DD
:10571000094800F0C7F8012240F22551064800F080
:105720009BF8012240F22441034800F095F8012142
:10573000014800F04EF81FBD0010014070B500BFD9
:1057400040F22551184800F05DF878B11648001D68
:105750000088C4B22046FBF7E3FD144801780078C6
:10576000401C124A10701248445416E040F2244182
:105770000D4800F047F880B10B480088C5B20A48D0
:10578000001D0088C5B209480078401EC1B2084813
:1057900000F020F900200549087040F22551024828
:1057A00000F008F870BD0000004400403800002000
:1057B0000401002010B50022002340F66A14A14223
:1057C00000D100BF0A1201249440A3B2DC4304803C
:1057D00010BD21B1828942F40052828104E08289A5
:1057E0004DF6FF731A408281704702460020B1F5E2
:1057F000007F00D100BF13880B400BB1012000E0F7
:105800000020704770B502460024002300250020C8
:1058100040F66A16B14200D100BFC1F3421501F053
:105820001F03012606FA03F3012D02D196893340A6
:1058300006E0022D02D1168A334001E0968A3340F9
:105840000C12012606FA04F41688344013B10CB188
:10585000012000E0002070BDF0B5034600240026C2
:105860000025002040F66A17B94200D100BF184653
:10587000C1F3421401F01F06012707FA06F5012CB7
:1058800001D10C3004E0022C01D1103000E01430C2
:105890001AB107682F43076002E00768AF4307604B
:1058A000F0BD00002DE9FF4705460E460024A14645
:1058B00000BFA046B08900B100BF2C8A24F4405438
:1058C000F08804432C82AC8941F20C608443B08898
:1058D00031890843718908430443AC81AC8A24F4BC
:1058E0004074B0890443AC826846FEF76BFD2048E3
:1058F000854202D01F48854202D1DDF80C9001E0BC
:10590000DDF80890A88900F4004040B109EBC90017
:1059100000EB091031684900B0FBF1F707E009EB33
:10592000C90000EB091031688900B0FBF1F7642071
:10593000B7FBF0F004012009642101FB1078A8896D
:1059400000F4004040B1322000EBC800B0FBF1F0A1
:1059500000F00700044308E0322000EB0810642147
:10596000B0FBF1F000F00F0004432C81BDE8FF878D
:10597000001001400014014070B505460E46002499
:105980000CE0295D074800F00FF800BF40210548F2
:10599000FFF72BFF0028F9D0601CC4B2B442F0DB43
:1059A00070BD000000100140C1F308028280704702
:1059B00006488088801F00B2044988800846B0F9F4
:1059C0000400962801DC962088807047E2000020C1
:1059D00000BFFEE770B504460D460120334908704C
:1059E0002078AA2860D16078BB285DD1A0780128F2
:1059F00020D1E07808281DD16079217940EA012082
:105A0000A0F57A7000B22A498880E079A17940EA4D
:105A1000012000B226490880607A217A40EA0120FC
:105A200000B223494880E07AA17A40EA012000B21E
:105A30001F49C880A078022835D1E078012832D1EA
:105A4000207909282DD2DFE800F02C050C13141B57
:105A5000212A2B001748007840F0010015490870F2
:105A600020E01448007840F002001249087019E064
:105A700018E01048007840F004000E49087011E06A
:105A800001200D490870FEF759FD0BE000200A497E
:105A90000870012009490870FEF7A1FD02E001E04D
:105AA00000E000BF00BF00BF70BD0000DC000020B0
:105AB000E200002060000020DD0000202D0000201A
:105AC00010B5044644B110210848FCF7C7FD202159
:105AD0000648FCF7C3FD07E010210448FCF7BCFDB5
